:100000000C94E80D0C94130E0C94130E0C94130E18
:100010000C94130E0C94130E0C94130E0C94130EDC
:100020000C94130E0C94130E0C94B9DC0C9433DB6B
:100030000C94130E0C94130E0C94130E0C94130EBC
:100040000C94130E0C9428890C94130E0C94130E1C
:100050000C94130E0C94130E0C9457920C94FCD920
:100060000C94130E0C94130E0C94130E0C94130E8C
:100070000C94130E0C94130E0C94130E0C94130E7C
:100080000C94130E0C94130E0C94130E0C94130E6C
:100090000C9453D40C94130E084AD73B3BCE016EFC
:1000A00084BCBFFDC12F3D6C74319ABD56833DDACF
:1000B0003D00C77F11BED9E4BB4C3E916BAAAABEDE
:1000C000000000803F05A84CCDB2D44EB93836A907
:1000D000020C50B9918688083CA6AAAA2ABE000044
:1000E00000803F4D383420582059205A2045006563
:1000F00063686F3A0043616E6E6F7420656E74655D
:1001000072207375626469723A20004D3234004D7A
:100110003233202573006175746F25692E670045A1
:1001200072726F723A006572726F722077726974C0
:10013000696E6720746F2066696C65004E6F74206D
:100140005344207072696E74696E67002F005344C7
:10015000207072696E74696E672062797465200020
:100160002E0044656C6574696F6E206661696C650C
:10017000642C2046696C653A200046696C652064F1
:10018000656C657465643A002E006F70656E20665C
:1001900061696C65642C2046696C653A2000577271
:1001A0006974696E6720746F2066696C653A200017
:1001B0002E006F70656E206661696C65642C204648
:1001C000696C653A20002E006F70656E206661696B
:1001D0006C65642C2046696C653A200046696C6544
:1001E0002073656C6563746564002053697A653AB1
:1001F000200046696C65206F70656E65643A20006A
:100200002E006F70656E206661696C65642C2046F7
:10021000696C653A20004E6F7720667265736820BE
:1002200066696C653A20004E6F7720646F696E676F
:100230002066696C653A20002220706F73002220CE
:10024000706172656E743A2200535542524F555494
:10025000494E452043414C4C207461726765743AA5
:100260002200747279696E6720746F2063616C6C10
:10027000207375622D67636F64652066696C6573B2
:10028000207769746820746F6F206D616E79206CBF
:100290006576656C732E204D4158206C6576656CD3
:1002A0002069733A0053442063617264206F6B00CD
:1002B0006F70656E526F6F74206661696C65640063
:1002C000766F6C756D652E696E6974206661696CF8
:1002D000656400534420696E6974206661696C002E
:1002E0006563686F3A0048617264636F6465642097
:1002F00044656661756C742053657474696E6773C8
:10030000204C6F616465640053746F726564207380
:10031000657474696E677320726574726965766559
:100320006400205A0020590020204D3231322058DC
:10033000004265642070726F6265206F6666736547
:100340007420286D6D293A00205A00205900202081
:100350004D3231312058004D617820706F736974CF
:10036000696F6E20286D6D293A00205A00205900CF
:1003700020204D3231302058004D696E20706F734F
:100380006974696F6E20286D6D293A002044002041
:1003900049002020204D3330312050005049442066
:1003A00073657474696E67733A00205A00205900AF
:1003B00020204D323036205800486F6D65206F6622
:1003C0006673657420286D6D293A00204500205A17
:1003D0000020580020420020540020204D323035AB
:1003E000205300416476616E6365642076617269B2
:1003F00061626C65733A20533D4D696E2066656598
:10040000647261746520286D6D2F73292C20543D12
:100410004D696E2074726176656C206665656472E4
:1004200061746520286D6D2F73292C20423D6D6904
:100430006E696D756D207365676D656E7420746986
:100440006D6520286D73292C20583D6D6178696D8C
:10045000756D205859206A65726B20286D6D2F7359
:10046000292C20205A3D6D6178696D756D205A20C8
:100470006A65726B20286D6D2F73292C2020453DF5
:100480006D6178696D756D2045206A65726B2028F5
:100490006D6D2F73290020540020204D3230342000
:1004A0005300416363656C65726174696F6E3A20D5
:1004B000533D616363656C65726174696F6E2C2076
:1004C000543D7265747261637420616363656C6529
:1004D000726174696F6E00204500205A0020590037
:1004E00020204D3230312058004D6178696D756D96
:1004F00020416363656C65726174696F6E20286D5D
:100500006D2F7332293A00204500205A00205900EF
:1005100020204D3230332058004D6178696D756D63
:100520002066656564726174657320286D6D2F7334
:10053000293A00204500205A0020590020204D393A
:100540003220580053746570732070657220756E88
:1005500069743A0053657474696E67732053746FDD
:10056000726564006563686F3A004572726F723A33
:100570000053544F505045442E20005072696E7401
:1005800065722073746F7070656420647565207483
:100590006F206572726F72732E20466978207468BE
:1005A00065206572726F7220616E642075736520BC
:1005B0004D39393920746F20726573746172742EED
:1005C000202854656D706572617475726520697359
:1005D0002072657365742E205365742069742061E0
:1005E000667465722072657374617274696E6729CE
:1005F000004B494C4C45442E20005072696E746586
:10060000722068616C7465642E206B696C6C28299B
:100610002063616C6C656421006F6B0052657365CB
:100620006E643A20002200556E6B6E6F776E206309
:100630006F6D6D616E643A2022004368616E67657C
:100640002066696C616D656E74007A5F6D696E3AE3
:100650002000795F6D61783A2000785F6D696E3AAD
:1006600020005A3A00593A0020436F756E742058A2
:100670003A2000453A005A3A00593A00583A0028C0
:10068000676F6F73653131372C205072696E7472E9
:10069000626F74206669726D77617265205265764B
:1006A0003129004D6179203234203230313520310A
:1006B000303A30303A3139004649524D574152456F
:1006C0005F4E414D453A4D61726C696E2056313B2B
:1006D00020537072696E7465722F6772626C206D40
:1006E000617368757020666F722067656E3620468C
:1006F00049524D574152455F55524C3A6874747097
:100700003A2F2F7072696E7472626F742E636F6D00
:100710002050524F544F434F4C5F56455253494F10
:100720004E3A312E30204D414348494E455F545991
:1007300050453A5072696E7472626F742045585415
:1007400052554445525F434F554E543A312055550A
:1007500049443A30303030303030302D3030303065
:100760002D303030302D303030302D303030303092
:10077000303030303030300A005072696E7472623E
:100780006F74204F66662E0042656420646F6E654C
:100790002E0020423A0020453A00543A0042656457
:1007A0002048656174696E672E0048656174696EE2
:1007B0006720646F6E652E0020573A0020453A008E
:1007C000543A0048656174696E672E2E2E002042EF
:1007D000403A0020403A00202F003A0020540020E8
:1007E0002F0020423A00202F006F6B20543A002542
:1007F00069206D696E2C2025692073656300456E44
:10080000642066696C65206C697374004265676971
:100810006E2066696C65206C697374004E6F206D84
:100820006F76652E00526573756D696E6720707204
:10083000696E74005761697420666F722075736504
:10084000722E2E2E000A002C20002C2000426564FF
:1008500020506F736974696F6E2C000A00207A3A19
:10086000200020793A200042656420783A20000A6E
:1008700000207A3A200020793A20004265642078EE
:100880003A20000A00207A3A200020793A200042DB
:10089000656420783A20005A50726F6265204F7567
:1008A000747369646520426564005A50726F6265B2
:1008B000204F7574736964652042656400486F6DEC
:1008C0006520582F59206265666F7265205A00486E
:1008D0006F6D6520582F59206265666F7265205ACA
:1008E00000536C6565702E2E2E00FF01FF0000A0E6
:1008F000400000A0400000803F256920686F7572AD
:1009000073202569206D696E7574657300446F6E80
:1009100065207072696E74696E672066696C650027
:1009200053544F505045442E20005072696E7465E8
:10093000722073746F707065642064756520746FC5
:10094000206572726F72732E204669782074686514
:10095000206572726F7220616E6420757365204D20
:1009600039393920746F20726573746172742E2066
:100970002854656D706572617475726520697320A5
:1009800072657365742E20536574206974206166E6
:100990007465722072657374617274696E67290080
:1009A0006F6B004E6F204C696E65204E756D6265F1
:1009B00072207769746820636865636B73756D2C4A
:1009C000204C617374204C696E653A20004E6F2094
:1009D000436865636B73756D2077697468206C6913
:1009E0006E65206E756D6265722C204C617374208B
:1009F0004C696E653A2000636865636B73756D20A2
:100A00006D69736D617463682C204C617374204C44
:100A1000696E653A20004C696E65204E756D6265A1
:100A200072206973206E6F74204C617374204C695E
:100A30006E65204E756D6265722B312C204C617392
:100A400074204C696E653A20004D31313000446F9E
:100A50006E6520736176696E672066696C652E002D
:100A60006F6B004D3239002020506C616E6E6572E4
:100A700042756666657242797465733A2000204655
:100A8000726565204D656D6F72793A20004D617910
:100A9000203234203230313500436F6D70696C651F
:100AA000643A200028676F6F73653131372C20500E
:100AB00072696E7472626F74206669726D776172AA
:100AC0006520526576312900207C20417574686F5D
:100AD000723A20004D617920323420323031352095
:100AE00031303A30303A313900204C61737420553E
:100AF0007064617465643A2000312E302E30004DF0
:100B000061726C696E200020536F66747761726544
:100B100020526573657400205761746368646F6761
:100B2000205265736574002042726F776E206F7576
:100B300074205265736574002045787465726E6127
:100B40006C20526573657400506F77657255700044
:100B50007374617274002200656E717565696E67E9
:100B60002022002200656E717565696E6720220083
:100B70006563686F3A0020746F6F206C6F6E67203A
:100B8000657874727573696F6E2070726576656EC4
:100B90007465640020636F6C64206578747275738B
:100BA000696F6E2070726576656E746564007C3C5A
:100BB0003E5E2B3D3F2F5B5D3B2C2A225C00453186
:100BC0003A200045303A20005A3A2000593A200095
:100BD000583A20004D53312C4D53322050696E73DA
:100BE0000A006563686F3A0028002920453A00280A
:100BF0000029205A3A0028002920593A00280020CC
:100C0000583A00537465707065722063757272652E
:100C10006E742076616C756573205B252872617730
:100C2000295D3A0024F404D9201BC40C5C0E9804FE
:100C3000C4095F0265077101F405F900FB04B30004
:100C400048048700C10369005803550003034500A9
:100C5000BE023A008402310053022A002902250014
:100C600004022000E4011C00C8011900AF011700B4
:100C7000980114008401130071011000610110003B
:100C800051010E0043010D0036010B002B010B003A
:100C900020010B00150109000C01090003010800E7
:100CA000FB000800F3000800EB000700E40006006A
:100CB000DE000600D8000600D2000600CC000500C9
:100CC000C7000500C2000500BD000400B900040013
:100CD000B5000400B1000400AD000400A900040048
:100CE000A5000300A20003009F0004009B00030076
:100CF0009800030095000200930003009000030099
:100D00008D0002008B0003008800020086000200B4
:100D100084000300810002007F0002007D000200C9
:100D20007B000200790002007700010076000200DB
:100D30007400020072000100710002006F000200E6
:100D40006D0001006C0002006A00010069000200F1
:100D500067000100660001006500010064000200F8
:100D60006200010061000100600001005F000200FC
:100D70005D0001005C0001005B0001005A00010001
:100D80005900010058000100570001005600010001
:100D90005500010054000100530000005300010001
:100DA0005200010051000100500001004F000100FD
:100DB0004E0000004E0001004D0001004C000100FB
:100DC0004B0000004B0001004A00010049000100F7
:100DD00048000000480001004700010046000000F4
:100DE00046000100450000004500010044000100EC
:100DF00043000000430001004200000042000100E7
:100E00004100000041000100400001003F000000DF
:100E10003F0001003E0000003E0001003D000000D8
:100E20003D0001003C0000003C0000003C000100CF
:100E30003B0000003B0001003A0000003A000100C6
:100E400039000000390001003800000038000000BF
:100E500038000100370000003700010036000000B4
:100E600036000000360001003500000035000000AB
:100E7000350001003400000034000000340001009F
:100E80003300000033000000330001003200000096
:100E9000320000003200010031000000310000008B
:100EA000310001003000000030000000300001007F
:100EB0002F0000002F0000002F0000002F00010075
:100EC0002E0000002E0000002E0001002D0000006A
:100ED0002D0000002D0000002D0001002C0000005E
:100EE0002C0000002C0000002C0001002B00000052
:100EF0002B0000002B0000002B0001002A00000046
:100F00002A0000002A0000002A0001002900000039
:100F1000290000002900000029000000290001002C
:100F20002800000028000000280000002800000021
:100F30002800010027000000270000002700000013
:100F40002700000027000100260000002600000006
:100F500026000000260000002600010025000000F9
:100F600025000000250000002500000025000000ED
:100F700025000100240000002400000024000000DF
:100F800024000000240001002300000023000000D2
:100F900023000000230000002300000023000000C5
:100FA00023000100220000002200000022000000B7
:100FB00022000000220000002200010021000000A9
:100FC000210000002100000021000000210000009D
:100FD000210000002100010020000000200000008E
:100FE0002000000020000000200000002000000081
:100FF00020000000200001001F0000001F00000072
:101000001F0000001F0000001F0000001F00000064
:101010001F0001001E0000001E0000001E00000056
:101020001E00000024F4D43050C38E20C2A240170A
:10103000828B7011127A910D816CD90AA861E10836
:10104000C7586607615143061E4B5D05C145A7049D
:101050001A411104093D9803713931034036DB020E
:1010600065339102D4305402802E1D02632CEE01B0
:10107000752AC501B028A001102781018F256401C0
:101080002B244B01E0223401AC211F018D200D01E6
:10109000801FFC00841EED00971DDF00B81CD200ED
:1010A000E61BC600201BBC00641AB200B219A800DF
:1010B0000A19A0006A189900D117910040178B00F7
:1010C000B516840031167E00B31579003A15730009
:1010D000C7146F0058146A00EE136600881363008B
:1010E00025135E00C7125B006C12570015125400E6
:1010F000C111510070114F0021114B00D610490051
:101100008D1047004610440002104200C00F4000FE
:10111000800F3E00420F3C00060F3B00CB0E380014
:10112000930E37005C0E3500270E3400F30D3200AD
:10113000C10D3100900D3000600D2E00320D2D00DC
:10114000050D2C00D90C2B00AE0C2900850C2900B4
:101150005C0C2700350C27000E0C2600E80B240041
:10116000C40B2400A00B23007D0B23005A0B21008D
:10117000390B2100180B2000F80A1F00D90A1E00A5
:10118000BB0A1E009D0A1D00800A1D00630A1C0088
:10119000470A1B002C0A1B00110A1A00F7091A0043
:1011A000DD091900C4091900AB09190092091700DB
:1011B0007B091800630917004C0916003609160050
:1011C000200916000A091500F5081500E0081400AA
:1011D000CC081400B8081400A408140090081300E8
:1011E0007D0812006B081300580812004608120010
:1011F0003408110023081100120811000108110021
:10120000F0071000E0071000D0071000C007100022
:10121000B0070F00A107100091070E0083070F0011
:1012200074070F0065070E0057070E0049070E00F0
:101230003B070D002E070E0020070D0013070D00C1
:1012400006070D00F9060C00ED060D00E0060C0087
:10125000D4060C00C8060C00BC060C00B0060C003E
:10126000A4060B0099060C008D060B0082060B00ED
:1012700077060B006C060B0061060A0057060B0090
:101280004C060A0042060A0038060A002E060A002A
:1012900024060A001A060A001006090007060A00BA
:1012A000FD050900F4050900EB050900E205090048
:1012B000D9050900D0050900C7050900BE050900C8
:1012C000B5050800AD050800A50509009C05080046
:1012D000940508008C050800840508007C050800BA
:1012E000740508006C050700650508005D0507002A
:1012F000560508004E050700470507004005080091
:1013000038050700310507002A05070023050700F7
:101310001C050600160507000F0507000805060056
:1013200002050700FB040600F5040700EE040600B2
:10133000E8040600E2040700DB040600D50406000A
:10134000CF040600C9040600C3040600BD0406005D
:10135000B7040600B1040500AC040600A6040600AC
:10136000A00405009B0406009504050090040600F7
:101370008A04050085040500800406007A0405003F
:1013800075040500700405006B0405006604050083
:10139000610405005C0405005704050052040500C3
:1013A0004D04050048040500430405003E04040004
:1013B0003A04050035040500300404002C0405003F
:1013C00027040400230405001E0404001A0404007A
:1013D00016040500110404000D04040009040500AE
:1013E0000404040000040400FC030400F8030400E7
:1013F000F4030400F0030400EC030400E803040019
:10140000E4030400E0030400DC030400D803040048
:10141000D4030400D0030400CC030400C803030079
:10142000C50303004572726F723A004572723A202A
:101430004D415854454D50204245440054656D700F
:101440006572617475726520686561746564206297
:101450006564207377697463686564206F66662EBF
:10146000204D415854454D5020747269676765722C
:101470006564202121004572723A204D494E544541
:101480004D50003A20457874727564657220737708
:10149000697463686564206F66662E204D494E54FA
:1014A000454D50207472696767657265642021003C
:1014B0004572723A204D415854454D50003A2045EE
:1014C0007874727564657220737769746368656493
:1014D000206F66662E204D415854454D5020747241
:1014E00069676765726564202100202D20496E764A
:1014F000616C6964206578747275646572206E75BC
:101500006D62657220210070012C0190012701B0ED
:10151000012201C0011D01F0011801100213013068
:10152000020E016002090190020401C002FF0000E6
:1015300003FA004003F5008003F000D003EB002025
:1015400004E6007004E100E004DC004005D700C0C0
:1015500005D2004006CD00D006C8008007C3003089
:1015600008BE00F008B900C009B400B00AAF00B06E
:101570000BAA00D00CA500000EA000500F9B00C0CD
:101580001096005012910000148C00C0158700B016
:10159000178200B0197D00D01B7800001E73004038
:1015A000206E0090226900F024640040275F0090C4
:1015B000295A00E02B5500102E500020304B00100F
:1015C000324600E033410090353C00103737007060
:1015D000383200A0392D00B03A2800A03B2300602B
:1015E0003C1E00103D1900903D1400103E0F00708D
:1015F0003E0A00C03E0500003F0000504944204123
:1016000075746F74756E652066696E69736865645C
:10161000212050757420746865204B702C204B6914
:1016200020616E64204B6420636F6E7374616E740E
:101630007320696E746F20436F6E6669677572619F
:1016400074696F6E2E6800504944204175746F7440
:10165000756E65206661696C6564212074696D65CD
:101660006F75740020403A006F6B20543A006F6B26
:1016700020423A00504944204175746F74756E657C
:10168000206661696C6564212054656D70657261C6
:101690007475726520746F6F206869676800204BED
:1016A000643A2000204B693A2000204B703A200019
:1016B00020436C61736963205049442000205475B5
:1016C0003A2000204B753A2000206D61783A2000C6
:1016D000206D696E3A200020643A20002062696122
:1016E000733A20001000C90210012C0140012201B0
:1016F00070011801B0010E01F00104015002FA005E
:10170000B002F0003003E600D003DC009004D20009
:101710007005C800A006BE000008B400B009AA0009
:10172000D00BA000600E960060118C0000158200A6
:1017300020197800C01D6E00A0226400B0275A0056
:10174000902C500000314600E0343C00103832004C
:10175000903A2800603C1E00A03D1400803E0A0024
:10176000203F00002D2D3A2D2D002D2D2D0053440E
:10177000002059000120000120004D323100496E47
:1017800069742E2053442D43617264004E6F2043D0
:10179000617264004D3231004368616E67652053A9
:1017A000442D43617264005072696E742066726FDA
:1017B0006D2053440053746F70205072696E740032
:1017C000526573756D65205072696E740050617555
:1017D0007365205072696E7400436F6E74726F6C23
:1017E00000507265706172650054756E6500496ED7
:1017F000666F2073637265656E00052E2E000452BD
:10180000656672657368004D61696E004D32340023
:101810004D3233202573004D383420582059205A3A
:10182000204500526573746F7265204661696C7360
:10183000616665004C6F6164206D656D6F72790043
:1018400053746F7265206D656D6F72790054656DAC
:101850007065726174757265004D61696E00504902
:10186000442D43005049442D43005049442D440029
:101870005049442D44005049442D49005049442DBD
:1018800049005049442D50005049442D5000200239
:1018900020466163740020022046616374002002C8
:1018A000204D6178002002204D6178002002204DFB
:1018B000696E002002204D696E004F6666004F6E13
:1018C00020004F6666004F6E20004175746F74658E
:1018D0006D700046616E2073706565640046616ED0
:1018E0002073706565640042656400426564004E63
:1018F0006F7A7A6C6533004E6F7A7A6C6533004E7E
:101900006F7A7A6C6532004E6F7A7A6C6532004E6F
:101910006F7A7A6C65004E6F7A7A6C6500436F6EF1
:1019200074726F6C004D6F76652041786973004367
:101930006F6F6C646F776E005072656865617420BC
:10194000414253005072656865617420504C4100FB
:10195000473238004175746F20486F6D65004D380F
:10196000340044697361626C6520537465707065FE
:101970007273004D61696E004D6F766520302E31B7
:101980006D6D004D6F766520316D6D004D6F766524
:101990002031306D6D005072657061726500457860
:1019A000747275646572004D6F7665205A004D6FD4
:1019B00076652059004D6F76652058004D6F76652D
:1019C0002041786973004578747275646572005AB5
:1019D00000590058004D363030004368616E67652D
:1019E0002066696C616D656E7400466C6F770046A9
:1019F0006C6F770046616E207370656564004661A8
:101A00006E20737065656400426564004265640021
:101A10004E6F7A7A6C6533004E6F7A7A6C6533005C
:101A20004E6F7A7A6C6532004E6F7A7A6C6532004E
:101A30004E6F7A7A6C65004E6F7A7A6C65005370DF
:101A4000656564005370656564004D61696E0001F1
:101A5000290229042908291029202940298029013F
:101A60002C022C01260226042608261026202640B9
:101A7000268026402C802C012302230423082310D7
:101A8000232023402380230120022004200820104B
:101A900020202040208020102C202C012F022F04F9
:101AA0002F082F102F202F402F802F7EFE7EFD7EAF
:101AB000FB7EF77EEF7EDF7EBF7E7F00010000EFC2
:101AC0001A1200020000011B4300030000441B0423
:101AD00001030904481B1802030904621B160303CF
:101AE00009047A1B0C0001C1020180360181361203
:101AF00001000202000020C016830400010102035D
:101B00000109024300020100C03209040000010281
:101B10000201000524001001052401000104240233
:101B20000605240600010705820308004009040198
:101B300000020A00000007050302400000070584B8
:101B40000240000004030904180354006500650006
:101B50006E00730079006400750069006E006F000C
:101B6000000016035500530042002000530065009A
:101B70007200690061006C0000000C03310032004B
:101B80003300340035000000494E46494E4954594F
:101B90004E414ECDCCCC3D0AD7233C17B7D1387738
:101BA000CC2B329595E6241FB14F0A00002041004E
:101BB00000C84200401C4620BCBE4CCA1B0E5AAE98
:101BC000C59D7400E62C77886DC85FD33AE0E12CA0
:101BD00011241FBECFEFD0E2DEBFCDBF13E0A0E0E7
:101BE000B1E0ECE5FCEC01E00BBF02C007900D9208
:101BF000A63CB107D9F71BBE11E1A6ECB3E001C0CA
:101C00001D92AB3AB107E1F71BE1CEECDBE104C07A
:101C10002297FE010E94D4E5C43CD107C9F70E9477
:101C200037DD0C9422E60C940000A0E0B0E0EBE17C
:101C3000FEE00C94F1E5EC015B016115710519F012
:101C4000FB0191838083F9908F2D90E00E94D8E56D
:101C5000892BC9F7FDE2FF1621F4F990EE24E394F5
:101C600005C02BE2F21609F4F990EE248E01015022
:101C70001040C80168E87BE143E050E072D2892B54
:101C8000F9F48E010E5F1F4FC8016BE87BE145E060
:101C900050E067D2892B19F48E01095F1F4FA11400
:101CA000B10419F0F50111830083E0FC04C070E079
:101CB00090E080E813C070E090E080E86FEF07C12B
:101CC000C80160E97BE143E050E04BD2892B69F425
:101CD000A114B10429F470E090E080EC6FE7F7C044
:101CE0002296F501D183C083F6CF8824992440E061
:101CF00050E060E070E0EF2DE053EA30A0F5F2E054
:101D0000EF2A8E2D90E09C0128703070E2FE06C014
:101D1000232B79F50894811C911C2BC0232B19F0DF
:101D2000089481089108DB01CA0112E0880F991F0D
:101D3000AA1FBB1F1A95D1F7480F591F6A1F7B1F97
:101D4000440F551F661F771F4E0F511D611D711DDA
:101D5000483929E9520729E9620729E1720748F061
:101D600084E0E82A06C0EE3F31F4E3FC39C098E095
:101D7000E92AF990C0CFE53311F0E53189F52991D1
:101D80002D3219F4E0E1EE2A05C02B3219F081E082
:101D900090E003C0299182E090E0E22FE053EA3026
:101DA00018F0C81BD90B1CC020E030E0FCE0203844
:101DB0003F075CF4C901880F991F880F991F280FEE
:101DC000391F220F331F2E0F311DE991E053EA30E6
:101DD00068F3E4FE03C0309521953F4F820E931EB9
:101DE000CE2CDD24E1FE07C0A114B10421F021971F
:101DF000F501D183C083CB01BA010E943DE27B0192
:101E00008C01F3E0CF22DD2423E0C216D10421F4BB
:101E100017FB109517F9109557016801C801B70114
:101E200020E030E040E050E00E949DE1882309F48A
:101E30004AC097FE0DC027EAE22E2BE1F22E9094C5
:101E4000819491089394C0E2D0E000E010E012C0C9
:101E50009FEBE92E9BE1F92EF6CFF7012591359105
:101E600045915491C601B5010E947DE45B016C016E
:101E70008C1A9D0A8C169D0684F7D595C7950F5F21
:101E80001F4F0630110529F08CEF9FEFE80EF91E69
:101E9000F1CFC501D6017C018D018C2D880F8D2DD0
:101EA000881F8F3F51F0C601B50120E030E040E0CF
:101EB00050E00E949DE1882331F482E290E090930B
:101EC000AA118093A9117E2D9F2D802F612F272F7E
:101ED000392F482F562FB901CA01CDB7DEB7ECE034
:101EE0000C940DE62F923F925F926F927F928F92A9
:101EF0009F92AF92BF92CF92DF92EF92FF920F9399
:101F00001F93CF93DF938C011B01EA0161157105CB
:101F100019F0FB0191838083209749F0CE0102974D
:101F2000839728F020E030E040E050E0F6C0F80170
:101F3000A1908F018A2D90E00E94D8E5892BB9F7F6
:101F4000FDE2AF1631F4F801A1908F0155245394AE
:101F500007C0FBE2AF1619F4F801A1908F015524D8
:101F6000209719F0C031D105C1F4F0E3AF1679F430
:101F7000F8018081883711F0883549F4F801A18093
:101F80000E5F1F4FF2E05F2AC0E1D0E006C020974D
:101F900021F480E3A816E9F427C0C830D10531F157
:101FA000C930D10524F4C230D10531F50CC0CA3096
:101FB000D10589F0C031D105F9F4C12CD12CE12C27
:101FC000B8E0FB2E28C0C12CD12CE12CA0E4FA2EC5
:101FD00022C0CAE0D0E0FCECCF2EFCECDF2EFCEC03
:101FE000EF2EFCE0FF2E17C0C8E0D0E0C12CD12CB2
:101FF000E12CE0E1FE2E0FC09E01442737FD409505
:10200000542F60E070E080E090E80E9495E5C901FF
:10201000DA016C017D0120E030E040E050E060E05A
:102020003E01882477FC8094982C70EDB72EBA0C72
:10203000E9E0EB1570F48A2D81548A3118F499EC9B
:10204000B92E06C08A2D81568A3150F589EAB82EFC
:10205000BA0C8B2D90E08C179D0714F56F3FE1F0C3
:10206000C216D306E406F506B0F0CA01B901A40110
:1020700093010E944FE59B01AC012B0D311D411DC9
:10208000511D2130F0E03F07F0E04F07F0E85F0717
:1020900010F461E001C06FEFF801A1908F01C5CF8E
:1020A0002114310481F0662331F001501040F10118
:1020B0001183008308C051FE1AC002501040F10184
:1020C0001183008314C067FF12C050FC05C02FEFBE
:1020D0003FEF4FEF5FE704C020E030E040E050E822
:1020E00082E290E09093AA118093A91116C050FE4D
:1020F00008C050954095309521953F4F4F4F5F4F09
:102100000CC057FF0AC082E290E09093AA1180931E
:10211000A9112FEF3FEF4FEF5FE7B901CA01DF9140
:10212000CF911F910F91FF90EF90DF90CF90BF90D4
:10213000AF909F908F907F906F905F903F902F9087
:102140000895FB01DC0105900D920020E1F7089550
:10215000FC0105900020E9F7809590958E0F9F1F58
:102160000895FB01DC014150504088F08D9181348D
:102170001CF08B350CF4805E659161341CF06B357E
:102180000CF4605E861B611171F3990B0895881B36
:10219000FCCFFB01DC014150504048F005900D920E
:1021A0000020C9F701C01D9241505040E0F708954A
:1021B000FB0155915523A9F0BF01DC014D91451755
:1021C0004111E1F759F4CD010590002049F04D91FE
:1021D00040154111C9F3FB014111EFCF81E090E0BF
:1021E00001970895FB01DC0104C08D9101908019D5
:1021F00021F441505040C8F7881B990B0895FB010A
:10220000DC0102C001900D9241505040D8F7089572
:10221000FB01DC010D900020E9F7119701900D9270
:102220000020E1F70895FC018191861721F08823B1
:10223000D9F7992708953197CF010895FB01DC0163
:1022400001900D920020E1F70895FB01DC0141505F
:10225000504030F08D910190801919F40020B9F7A9
:10226000881B990B0895FB01DC014150504048F058
:1022700001900D920020C9F701C01D9241505040BD
:10228000E0F70895AEE0B0E0E8E4F1E10C94F9E5A0
:102290000D891E898EE08C831A8309838FEF9FE757
:1022A0009E838D839E01275E3F4FCE0101966F89ED
:1022B000788DA9010AD02F813885020F131FF801EC
:1022C00010822E96E4E00C9415E6ABE0B0E0EBE66D
:1022D000F1E10C94EBE53C012B015A01FC01178262
:1022E0001682838181FD03C06FEF7FEFB9C19AE051
:1022F000892E1E010894211C311CF3012381F20157
:1023000023FD859123FF81912F01882309F4A5C125
:10231000853239F423FD859123FF81912F01853288
:1023200021F490E0B301B7D1E8CF982FFF24EE2439
:102330009924FFE1FF15D0F09B3269F09C3228F41C
:10234000903259F0933291F40EC09D3249F090339F
:1023500069F441E024C052E0F52A84E0F82A28C05C
:1023600098E0F92A25C0E0E1FE2A22C0F7FC29C046
:10237000892F80538A3070F4F6FE05C0989C902C0B
:102380001124980E15C0E89CE02C1124E80EF0E210
:10239000FF2A0EC09E3229F4F6FC5FC140E4F42A05
:1023A00007C09C3619F450E8F52A02C0983649F463
:1023B000F20123FD959123FF91912F01992309F0BB
:1023C000B8CF892F8554833018F08052833038F489
:1023D00044E050E0A40EB51E5FE359830FC093366E
:1023E00031F0933779F0933509F052C01FC0F501F1
:1023F0008081898342E050E0A40EB51E610101E0B6
:1024000010E011C0F501C080D180F6FC03C06FEF71
:102410007FEF02C0692D70E042E050E0A40EB51ECF
:10242000C6012ED18C015FE7F52213C0F501C080F3
:10243000D180F6FC03C06FEF7FEF02C0692D70E022
:1024400042E050E0A40EB51EC6010FD18C0150E849
:10245000F52AF3FE06C018C080E290E0B3011BD15C
:10246000EA948E2D90E008171907B0F30DC0F6011D
:10247000F7FC8591F7FE81916F0190E0B3010BD1DC
:10248000E110EA94015010400115110581F7E2C0F6
:10249000943611F0993661F5F7FE08C0F5012081F8
:1024A00031814281538184E090E00AC0F50180814E
:1024B00091819C01442737FD4095542F82E090E0A4
:1024C000A80EB91E9FE6F92257FF09C05095409506
:1024D000309521953F4F4F4F5F4FE0E8FE2ACA01EC
:1024E000B901A1012AE030E002D1D82ED2183FC0B4
:1024F000953729F41F2D1F7E2AE030E01DC01F2DC7
:10250000197F9F3661F0903720F4983509F0A5C007
:102510000FC0903739F0983709F09FC004C028E009
:1025200030E00AC0106114FD146020E130E004C006
:1025300014FD166020E132E017FF08C0F50160814C
:1025400071818281938144E050E008C0F50180816F
:102550009181BC0180E090E042E050E0A40EB51E05
:10256000A101C5D0D82ED2188FE7F82EF122F6FEA1
:102570000BC05EEFF522D91438F4F4FE07C0F2FC6C
:1025800005C08FEEF82202C01D2D01C0192DF4FEEA
:102590000DC0FE01ED0DF11D8081803319F499EE1F
:1025A000F92208C01F5FF2FE05C003C08F2D867898
:1025B00009F01F5F0F2DF3FC13C0F0FE0EC01E15B7
:1025C00010F09D2C0AC09D2C9E0C911A1E2D05C04A
:1025D00080E290E0B3015FD01F5F1E15C8F304C016
:1025E0001E1510F4E11A01C0EE2404FF0EC080E3B2
:1025F00090E0B30150D002FF1BC001FD03C088E78B
:1026000090E00EC088E590E00BC0802F867881F0C6
:1026100001FF02C08BE201C080E2F7FC8DE290E096
:10262000B30139D005C080E390E0B30134D09A946F
:10263000D914C8F3DA94F101ED0DF11D808190E019
:10264000B30129D0DD20B1F705C080E290E0B301ED
:1026500022D0EA94EE20C9F750CEF301668177814B
:10266000CB012B96E2E10C9407E6FC01059061504A
:1026700070400110D8F7809590958E0F9F1F089598
:10268000FC016150704001900110D8F78095909541
:102690008E0F9F1F08950F931F93CF93DF938C018D
:1026A000EB018B8181FF1BC082FF0DC02E813F811A
:1026B0008C819D812817390764F4E881F9810193A1
:1026C000F983E88306C0E885F985802F0995892B71
:1026D00031F48E819F8101969F838E8302C00FEF1C
:1026E0001FEFC801DF91CF911F910F910895FA015B
:1026F000AA27283051F1203181F1E8946F936E7F41
:102700006E5F7F4F8F4F9F4FAF4FB1E03ED0B4E031
:102710003CD0670F781F891F9A1FA11D680F791F72
:102720008A1F911DA11D6A0F711D811D911DA11D83
:1027300020D009F468943F912AE0269F1124301993
:10274000305D3193DEF6CF010895462F4770405D2E
:102750004193B3E00FD0C9F7F6CF462F4F70405DDD
:102760004A3318F0495D31FD4052419302D0A9F738
:10277000EACFB4E0A6959795879577956795BA9532
:10278000C9F700976105710508959B01AC010A2EF8
:1027900006945795479537952795BA95C9F7620FCF
:1027A000731F841F951FA01D0895DC01ED91FC91FE
:1027B0000280F381E02D09950895DF93CF930F9266
:1027C000CDB7DEB7FC016983A081B18114962D914C
:1027D0003C911597BE016F5F7F4F41E050E0F901DA
:1027E00009950F90CF91DF910895FC011282138219
:1027F0000895FC018381882311F081E0828308958C
:10280000FC018281811112820895CF93DF93FC0134
:10281000E357FE4F208131812115310549F12150C7
:10282000304031832083DC01A05BBF4FFC01E359C2
:10283000FF4F2BE101900D922150E1F79C012657AB
:102840003F4F40E050E0EC01C357DE4F0CC04F5FFC
:102850005F4FD9015D97F9018BE101900D92815095
:10286000E1F7235E3F4F888199814817590778F334
:10287000DF91CF910895FC0184E593E091838083FB
:102880008581882321F0CF0102960C94B07A0895B7
:10289000CF92DF92EF92FF920F931F93DF93CF932C
:1028A000CDB7DEB76D970FB6F894DEBF0FBECDBFC4
:1028B0008C016B010D5A1F4FF801808103551040A8
:1028C000882321F49FE2E92EF12C03C08EE4E82E48
:1028D000F12CE00EF11E84E593E09A8389831E8239
:1028E0001B82B7016E5F7F4FCE010396A60121E0E8
:1028F0000E949D81882329F5EFEEF0E064918F011D
:1029000007C080EA91E159DF0F5F1F4FF801649122
:102910006623B9F7E5EFF0E064918F0107C080EA24
:1029200091E14BDF0F5F1F4FF80164916623B9F708
:1029300080EA91E1B60139DF80EA91E16AE03DDFAA
:102940003FC0F801E357FE4F608171816A30710525
:1029500068F59B012F5F3F4F318320838DE190E02D
:10296000289FA001299F500D389F500D11244359D5
:102970005F4F400F511F0AC0DA01FA017D978BE1CA
:1029800001900D928150E1F74D51504061507040DF
:10299000FFEF6E3F7F0781F7D801A359BF4FF701C3
:1029A00032968BE101900D928150E1F7D801A05B46
:1029B000BF4FFE0133968BE101900D928150E1F7FC
:1029C000CE01019658DF6D960FB6F894DEBF0FBEAC
:1029D000CDBFCF91DF911F910F91FF90EF90DF90CE
:1029E000CF900895EF92FF920F931F938C0124EBE9
:1029F000E22E21E0F22EE80EF91EC7010E94617A54
:102A0000C7010E94B07AF801108211821F910F91C4
:102A1000FF90EF900895CF92DF92EF92FF920F9385
:102A20001F93CF93DF937C016B01DB010D9000209E
:102A3000E9F78D0101501040061B170BE4EBF1E0A4
:102A4000EE0EFF1ED7011C92ECE4FEEFEE0EFF1E11
:102A5000CB016EE470E0E7DBEC01009731F4F801A4
:102A60003197EC0DFD1D86010CC060E270E0DBDBF0
:102A70008C010F5F1F4FCE016AE270E0D4DBFC01D6
:102A800031978DE081838AE082831382C7018E545F
:102A90009E4FB8010E94968284EB91E0E80EF91EE9
:102AA000D7018C918823F1F0EFE1F1E06491EF011F
:102AB00006C080EA91E181DE2196FE0164916623E1
:102AC000C1F7E6E2F1E06491EF0106C080EA91E12E
:102AD00074DE2196FE0164916623C1F780EA91E1DC
:102AE0006AE06BDEDF91CF911F910F91FF90EF9025
:102AF000DF90CF900895EF92FF920F93CF93DF93E3
:102B00007C01FC018381882309F43DC0EEE4F1E0FF
:102B10006491EF0106C080EA91E14FDE2196FE014B
:102B200064916623C1F789E692E0E80EF91EF70189
:102B3000408151816281738187E99DEFE80EF91E22
:102B400080EA91E12AE000E00E9478DDECE4F1E027
:102B50006491EF0106C080EA91E12FDE2196FE012B
:102B600064916623C1F781E692E0E80EF91EF70151
:102B7000408151816281738180EA91E12AE000E025
:102B80000E9478DD0DC0ECE3F1E06491EF0106C036
:102B900080EA91E112DE2196FE0164916623C1F77D
:102BA00080EA91E16AE009DEDF91CF910F91FF9019
:102BB000EF9008952F923F924F925F926F927F9283
:102BC0008F929F92AF92BF92CF92DF92EF92FF923D
:102BD0000F931F93DF93CF93CDB7DEB7AA970FB6AE
:102BE000F894DEBF0FBECDBF5C014B01FC018381B9
:102BF000882309F40AC1C5018C549E4F0E94B07A03
:102C0000F5011282188A1B8A84E593E09F878E87DC
:102C10004CE4C42ED12CCA0CDB1C2FE230E0A20EF7
:102C2000B31EF601B182A08221ED3FEFA20EB31ECA
:102C3000F40180818F3209F079C0C4016FE270E045
:102C4000F2DA7C010894E11CF11C3E010894611C3D
:102C5000711C260130E1232E312C2C0E3D1E61C04B
:102C6000C7016FE270E0DFDA6C01009709F46CC015
:102C7000E816F90608F068C08C010E191F09C30197
:102C8000B701A801F0DA060D171DF801108280EADD
:102C900091E1B3018ADD80EA91E16AE08EDDF20123
:102CA000608171816115710519F460E070E002C006
:102CB0006E5F7F4FC101A30121E00E949D818823A7
:102CC00029F5EAE8F1E064917F0108C080EA91E12A
:102CD00074DD0894E11CF11CF70164916623B1F7DF
:102CE00080EA91E1BE016F5F7F4F5FDDE8E8F1E0D0
:102CF00064917F0108C080EA91E15FDD0894E11CE6
:102D0000F11CF70164916623B1F778C02EE030E042
:102D10002C0F3D1FF2013183208376010894E11CC2
:102D2000F11CE114F10409F09BCF0BC08EE490E09C
:102D3000A80EB91EF601B182A08222EB3FEFA20ECF
:102D4000B31ED82C092D02C0DE2C0F2D8CE490E090
:102D5000A80EB91EF5018081918124EB3FEFA20EF0
:102D6000B31E009719F480E090E001C002966D2D2B
:102D7000702F0E9469828823F1F0EAE7F1E0649104
:102D80007F0108C080EA91E118DD0894E11CF11C84
:102D9000F70164916623B1F780EA91E16D2D702F00
:102DA00004DD29E632E0A20EB31EF5011082118285
:102DB0001282138227C0E2E6F1E064917F0108C02D
:102DC00080EA91E1FADC0894E11CF11CF7016491BE
:102DD0006623B1F780EA91E16D2D702FE6DCE0E625
:102DE000F1E064917F0108C080EA91E1E6DC08949B
:102DF000E11CF11CF70164916623B1F780EA91E1CF
:102E00006AE0DBDCCE010E9636DDAA960FB6F894AA
:102E1000DEBF0FBECDBFCF91DF911F910F91FF900D
:102E2000EF90DF90CF90BF90AF909F908F907F906A
:102E30006F905F904F903F902F900895BF92CF92E8
:102E4000DF92EF92FF920F931F93CF93DF938C014A
:102E5000EB018FE28993EE24E394FF246DE8C62E04
:102E600061E0D62EC00ED11E5DE1B52E14C0FB9CD4
:102E7000C001112483599F4F800F911FBE010E94F2
:102E8000C07A02C02196E3948881882319F08CE8E7
:102E90008E15C0F7F3942F2D30E0F60180819181DB
:102EA0002817390720F3E7FC07C0C8018C549E4F50
:102EB000BE010E94C07A01C01882DF91CF911F919C
:102EC0000F91FF90EF90DF90CF90BF9008952F92D9
:102ED0003F924F925F926F927F928F929F92AF92AA
:102EE000BF92CF92DF92EF92FF920F931F93DF93E7
:102EF000CF93CDB7DEB7AB970FB6F894DEBF0FBE5A
:102F0000CDBF5C014B014BA7DC0113968C9188234C
:102F100009F4DBC2E7EBF1E0AE0EBF1ED5018C91E8
:102F2000E9E4FEEFAE0EBF1E882309F4F5C02223AC
:102F300009F0C6C02FEC31E0A20EB31ED5018C9172
:102F4000E1E3FEEFAE0EBF1E882369F1EFE1F1E091
:102F500064917F0108C080EA91E12FDC0894E11CB4
:102F6000F11CF70164916623B1F7E2E6F2E06491A7
:102F70007F0108C080EA91E120DC0894E11CF11C8B
:102F8000F70164916623B1F780EA91E141E050E0F6
:102F900060E070E00E9403DE80EA91E16AE00DDC0F
:102FA0000E942F2D92C2EFEEF0E064917F0108C0E5
:102FB00080EA91E102DC0894E11CF11CF7016491C4
:102FC0006623B1F7E9E4F2E064917F0108C080EA8A
:102FD00091E1F3DB0894E11CF11CF7016491662395
:102FE000B1F780EA91E1B401E0DBEEE3F2E0649155
:102FF0007F0108C080EA91E1E0DB0894E11CF11C4C
:10300000F70164916623B1F7850101531E4FD80182
:103010006C918DE8F82E6F9DB00111246C527E4F9B
:103020006A0D7B1DC5010ADFF80160816F9DB0014B
:1030300011246C527E4F6A0D7B1D80EA91E1B5DB55
:10304000E8E3F2E064917F0108C080EA91E1B5DB3A
:103050000894E11CF11CF70164916623B1F7B9E60D
:10306000EB2EB2E0FB2EEA0CFB1CD7014D915D91DB
:103070006D917C9180EA91E12AE000E00E9478DD88
:1030800080EA91E16AE099DBA50141535E4FFA01C4
:103090002081E22FF0E0EC58FF4FEE0FFF1FEE0F04
:1030A000FF1FEA0DFB1DD701CD90DD90ED90FC9048
:1030B000C082D182E282F3822F5FFA01208326C090
:1030C000EFEEF0E064917F0108C080EA91E175DBEA
:1030D0000894E11CF11CF70164916623B1F7E7E263
:1030E000F2E064917F0108C080EA91E166DB089418
:1030F000E11CF11CF70164916623B1F780EA91E1CC
:10310000B40153DB80EA91E16AE057DBC5018C54DE
:103110009E4F0E94B07A30C02FEC31E0A20EB31E59
:10312000D5011C92E1E3FEEFAE0EBF1EEFEEF0E024
:1031300064917F0108C080EA91E13FDB0894E11CC3
:10314000F11CF70164916623B1F7E6E1F2E06491C6
:103150007F0108C080EA91E130DB0894E11CF11C9A
:10316000F70164916623B1F780EA91E1B4011DDBB8
:1031700080EA91E16AE021DBD50112961C92188A5F
:103180001B8A84E593E09F878E87ECE4CE2ED12CBA
:10319000CA0CDB1CEFE2F0E0AE0EBF1ED601AD9212
:1031A000BC92E1EDFFEFAE0EBF1ED4018C918F32C9
:1031B00009F079C0C4016FE270E035D87C01089451
:1031C000E11CF11C3E010894611C711C260170E198
:1031D000272E312C2C0E3D1E61C0C7016FE270E01E
:1031E00022D86C01009709F46CC0E816F90608F0C3
:1031F00068C08C010E191F09C301B701A80133D89B
:10320000060D171DF801108280EA91E1B301CDDAB5
:1032100080EA91E16AE0D1DAD2016D917C91611589
:10322000710519F460E070E002C06E5F7F4FC1016C
:10323000A30121E00E949D81882329F5E2E0F2E0CC
:1032400064917F0108C080EA91E1B7DA0894E11C3B
:10325000F11CF70164916623B1F780EA91E1BE01A8
:103260006F5F7F4FA2DAE0E0F2E064917F0108C077
:1032700080EA91E1A2DA0894E11CF11CF701649163
:103280006623B1F7FCC0EEE0F0E0EC0FFD1FD201C9
:10329000ED93FC9376010894E11CF11CE114F10418
:1032A00009F09BCF0BC02EE430E0A20EB31ED60176
:1032B000AD92BC92E2EBFFEFAE0EBF1ED82CC92C34
:1032C00002C0DE2CCF2CF501E45BFF4F2BA522239F
:1032D00009F49EC0608171816115710519F460E087
:1032E00070E002C06E5F7F4FC5018C549E4F4D2D24
:1032F0005C2D21E00E949D81882309F465C0A50111
:103300004F595D4F85EC91E0A80EB91EF501808103
:103310009181A281B3812BE33EEFA20EB31EFA018D
:1033200080839183A283B383E2EFF1E064917F0114
:1033300008C080EA91E141DA0894E11CF11CF70130
:1033400064916623B1F780EA91E16D2D7C2D2DDA31
:10335000EAEEF1E064917F0108C080EA91E12DDAA4
:103360000894E11CF11CF70164916623B1F721E692
:1033700032E0A20EB31ED5014D915D916D917C910D
:1033800080EA91E12AE000E00E9478DD80EA91E1A4
:103390006AE013DAE8E0F0E0AE0EBF1ED5011D9240
:1033A0001D921D921C921397ECEDF1E064917F0148
:1033B00008C080EA91E101DA0894E11CF11CF701F0
:1033C00064916623B1F776C0E8ECF1E064917F0187
:1033D00008C080EA91E1F1D90894E11CF11CF701E1
:1033E00064916623B1F780EA91E16D2D7C2DDDD9E2
:1033F000E6ECF1E064917F0108C080EA91E1DDD95B
:103400000894E11CF11CF70164916623B1F737C001
:10341000608171816115710519F460E070E002C08E
:103420006E5F7F4FC5018C549E4F4D2D5C2D26E560
:103430000E949D81882341F5E2EBF1E064917F01D8
:1034400008C080EA91E1B9D90894E11CF11CF701A8
:1034500064916623B1F780EA91E16D2D7C2DA5D9A9
:10346000E0EBF1E064917F0108C080EA91E1A5D929
:103470000894E11CF11CF70164916623B1F780EA1E
:1034800091E16AE09AD91EC081E0D5018C93EEE902
:10349000F1E064917F0108C080EA91E18ED908943F
:1034A000E11CF11CF70164916623B1F780EA91E118
:1034B000B4017BD980EA91E16AE07FD98D2D9C2D02
:1034C0000E94CAC8CE010E96D6D9AB960FB6F89414
:1034D000DEBF0FBECDBFCF91DF911F910F91FF9047
:1034E000EF90DF90CF90BF90AF909F908F907F90A4
:1034F0006F905F904F903F902F900895EF92FF92C2
:103500000F931F93CF93DF93EC010E940E898E01DE
:1035100001531E4FD8018C9134EBE32E31E0F32E92
:10352000EC0EFD1E882399F1C7010E94B07AF801C4
:103530006081615060838DE8689FB00111246C52F6
:103540007E4F6C0F7D1FCE0141E021E0C0DCD80131
:10355000EC91F0E0EC58FF4FEE0FFF1FEE0FFF1F56
:10356000EC0FFD1F4081518162817381C759DD4F8E
:10357000488359836A837B83C956D240C7010E941E
:1035800097798B81882389F181E08A832EC00E94FC
:103590005488C7010E94B07A1A8283EE90E00E949C
:1035A0001B5C8091BF08882301F11092BF088091B5
:1035B0006B06C82FD0E0CC0FDD1FCC5CDF4E6881DE
:1035C0007981882777FD8095982F0E943FE220918E
:1035D0009C0230919D0240919E0250919F020E9458
:1035E000ABE3181614F419821882DF91CF911F9162
:1035F0000F91FF90EF900895FC0181E08183CF014E
:1036000040E021E064CCEF92FF920F931F93CF93A1
:10361000DF937C01FC01138284A9882321F0C70178
:10362000C1960E94B07A870101571E4FC80160E021
:1036300044E10E9458788823D9F4EFEEF0E06491D9
:10364000EF0106C080EA91E1B8D82196FE016491AD
:103650006623C1F7E3EDF2E06491EF0106C080EA72
:1036600091E1ABD82196FE0164916623C1F76BC04E
:10367000E701CC56DE4FCE01B80141E00E9427831E
:10368000882311F5CE01B80140E00E9427838823EA
:10369000D9F4EFE1F1E06491EF0106C080EA91E135
:1036A0008CD82196FE0164916623C1F7E0ECF2E02C
:1036B0006491EF0106C080EA91E17FD82196FE0176
:1036C00064916623C1F73FC0C701C196BE010E9445
:1036D000A27D8823D9F4EFE1F1E06491EF0106C007
:1036E00080EA91E16AD82196FE0164916623C1F7D0
:1036F000E0EBF2E06491EF0106C080EA91E15DD871
:103700002196FE0164916623C1F71DC081E0F70197
:103710008383EFEEF0E06491EF0106C080EA91E16F
:103720004CD82196FE0164916623C1F7E5EAF2E0E8
:103730006491EF0106C080EA91E13FD82196FE0135
:1037400064916623C1F780EA91E16AE036D8D70137
:10375000A05BBF4FF701F1968BE101900D92815074
:10376000E1F7C7018F962CE430E0E20EF31EF7017B
:1037700091838083DF91CF911F910F91FF90EF9004
:1037800008952F923F924F925F926F927F929F92F5
:10379000AF92BF92CF92DF92EF92FF920F931F935F
:1037A000DF93CF93CDB7DEB7CC55D0400FB6F894AA
:1037B000DEBF0FBECDBF8C01662319F503591D4F27
:1037C000D8018C910D561240882309F4E6C00FB63B
:1037D000F89420919711309198114091991150913E
:1037E0009A110FBE0B591D4FF80180819181A28162
:1037F000B3810556124082179307A407B50708F452
:10380000CCC003591D4FD8011C920D561240F8012F
:103810008381882341F4C801F6DED80113968C9188
:10382000882309F4BAC000D000D000D0EDB7FEB7AD
:1038300031966E010894C11CD11CADB7BEB712966B
:10384000DC92CE92119786E191E093838283D80136
:103850009D968D919C919E97958384830E944211A1
:103860007601EDB7FEB736960FB6F894FEBF0FBEE1
:10387000EDBF56010AC0D7018C91992787FD90951D
:103880000E94E0E5F70181937F01F501019000209E
:10389000E9F73197EA19FB098E2D8C198E175CF325
:1038A00071E3A72EB12CA00EB11EC50140E050E07F
:1038B00060E070E00E94977999246DE3C62ED12CC8
:1038C000CC0EDD1E2E010894411C511C5FE1652EBB
:1038D000712C6C0E7D1E4FE0242E41E0342E43C02F
:1038E000D7018C9190E00E94E0E5F70181937F0180
:1038F000D6010D900020E9F71197AC19BD098E2D66
:103900008C198A176CF327968FAD27978E3759F14C
:10391000C601B20145E050E00E942511009719F55B
:1039200000D000D000D0EDB7FEB73196ADB7BEB72E
:1039300012967C926E921197338222825582448233
:103940000E944211EDB7FEB736960FB6F894FEBF4F
:103950000FBEEDBFC3010E94925C8BE091E00E941C
:103960001B5C99249394C501B60140E050E00E948D
:10397000C17C181614F47601BBCF992041F48FEF67
:103980009FEFD8019E969C938E939D9706C0F80159
:1039900085A596A5019696A785A7C45ADF4F0FB6B1
:1039A000F894DEBF0FBECDBFCF91DF911F910F9175
:1039B000FF90EF90DF90CF90BF90AF909F907F905F
:1039C0006F905F904F903F902F9008952F923F926D
:1039D0004F925F926F927F928F929F92AF92BF921F
:1039E000CF92DF92EF92FF920F931F93DF93CF93CB
:1039F000CDB7DEB7CB58D0400FB6F894DEBF0FBEC0
:103A0000CDBF7C012B015A0182E090E0A80EB91EC7
:103A1000F7017196CB57DF4FF983E883C558D04043
:103A2000C7010496CE57DF4F99838883C258D04090
:103A3000CC57DF4F1882C458D040B2E6CB2ED12CE1
:103A4000CC0EDD1EF6013B96C957DF4FF983E883A4
:103A5000C758D040AEE66A2EA2E07A2E6E0C7F1CCC
:103A6000F0E78F2EF2E09F2E8E0C9F1CEEE02E2EA4
:103A7000312C2C0E3D1E85E490E08C0F9D1F02968C
:103A8000C757DF4F99838883C958D040EFEEF0E0E5
:103A90009491C557DF4F9883CB58D0402BC1F60186
:103AA0008385482F50E0BA016871707060317105EC
:103AB00009F02EC1F301208131812130310509F453
:103AC00027C12230310509F423C1F601DE01119628
:103AD0009081903239F08E2F8C19883011F48EE25B
:103AE0008D939D933196C957DF4F88819981C7582F
:103AF000D040E817F90761F71C921E86F201808119
:103B0000882329F4C10160E071E00E940811C1011D
:103B1000B2010E940811C101BE016F5F7F4F0E9478
:103B20000811C10160E071E00E9408111AA61DA6EB
:103B300084E593E099A788A7CE018A96B501AE01E6
:103B40004F5F5F4F21E00E949D81882371F5F30153
:103B500080819181892B49F5C557DF4F6881CB580A
:103B6000D0400FEE10E008C080EA91E10E94DD1322
:103B70000F5F1F4FF80164916623B1F780EA91E16E
:103B800062E071E00E94D51380EA91E16AE00E9450
:103B9000DD1380EA91E1BE016F5F7F4F0E94D51374
:103BA00080EA91E16AE00E94DD13C757DF4FA881E8
:103BB000B981C958D040FE01BA968BE101900D92AF
:103BC0008150E1F784E593E027969FAF8EAF27976A
:103BD000C701B101AE014B5B5F4FF8DECE018B5BDD
:103BE0009F4F0E943B14CE0188960E943B1482C0D6
:103BF000953E09F47FC09E3209F47CC09F3509F4DC
:103C000079C0F7019189992331F09E3209F472C08D
:103C10009F3509F46FC043FD6DC080E060317105D0
:103C200009F481E0F70184A7882349F4F60180852F
:103C3000873409F05FC081858E3709F45BC0CE57A9
:103C4000DF4FA881B981C258D040F601808180320F
:103C500041F08E2F8C19883011F48EE28D93808183
:103C60008D933196C957DF4F88819981C758D040CD
:103C7000E817F90759F71C92F301808191810097A9
:103C8000A9F480EA91E1B2010E94D51380EA91E1A2
:103C9000CE57DF4F68817981C258D0400E94D5133A
:103CA00080EA91E16AE00E94DD1324C08130910531
:103CB00039F4F401808191810196918380831AC047
:103CC0000297C1F4CC57DF4FF881C458D0402F2F52
:103CD00030E0F4018081918128173907F1F0CC5749
:103CE000DF4FF881C458D040FF5FCC57DF4FF883D7
:103CF000C458D040C501B601CB57DF4F4881598128
:103D0000C558D0400E94C17C18160CF4C8CE05C01E
:103D1000F6019081992309F06BCFC557DF4F0FB69D
:103D2000F894DEBF0FBECDBFCF91DF911F910F91F1
:103D3000FF90EF90DF90CF90BF90AF909F908F90CB
:103D40007F906F905F904F903F902F900895EF92EB
:103D5000FF920F931F93DF93CF93CDB7DEB76D978D
:103D60000FB6F894DEBF0FBECDBF7C018C01045BA3
:103D70001F4F825B9F4FD8018D939C93EEE6F2E03C
:103D8000EE0EFF1E21E030E0D7012D933D937D0123
:103D90001D921C92E0E9FDEFEE0EFF1E029640E040
:103DA00050E060E070E00E949779D801ED91FC91BD
:103DB000DE01139632968BE101900D928150E1F76E
:103DC00084E593E09A838983C70165E171E08E0100
:103DD0000F5F1F4FA801FADDC8010E943B14F701D5
:103DE000E059FD4F808191816D960FB6F894DEBF4A
:103DF0000FBECDBFCF91DF911F910F91FF90EF903C
:103E00000895EF92FF920F931F93DF93CF93CDB757
:103E1000DEB76D970FB6F894DEBF0FBECDBF7C0145
:103E20008C01045B1F4F825B9F4FD8018D939C9345
:103E3000EEE6F2E0EE0EFF1E22E030E0D7012D9319
:103E40003C93E2E9FDEFEE0EFF1EF701E059FD4F56
:103E500060831182029640E050E060E070E00E94D2
:103E60009779D801ED91FC91DE01139632968BE1A2
:103E700001900D928150E1F784E593E09A83898364
:103E8000C70165E171E08E010F5F1F4FA8019EDD44
:103E9000C8010E943B146D960FB6F894DEBF0FBEAA
:103EA000CDBFCF91DF911F910F91FF90EF900895BB
:103EB000EF92FF920F931F93DF93CF93CDB7DEB7AF
:103EC0006D970FB6F894DEBF0FBECDBF7C018EE6B6
:103ED00092E0E80EF91EF7011182108282E99DEF4F
:103EE000E80EF91E87010F5C1F4FC80140E050E04B
:103EF00060E070E00E949779DE011396F8018BE193
:103F000001900D928150E1F784E593E09A838983D3
:103F1000C70165E171E08E010F5F1F4FA80156DDFB
:103F2000C8010E943B146D960FB6F894DEBF0FBE19
:103F3000CDBFCF91DF911F910F91FF90EF9008952A
:103F4000CF93DF93FC0111AA14AA84E593E090AB10
:103F500087A7E05BFF4F10823396108235979183DD
:103F60008083EE54F040EF01C559DF4FDE0120E0C1
:103F700030E0482F12961C92129715961C921597B6
:103F80004C9311969C931197235E3F4F5D9681E071
:103F90002232380779F7E057FE4F89E18083339664
:103FA0001082789610823996108233961082359757
:103FB00040839183E155FF4F108211821282138258
:103FC00038961082118212821382E956F2401282D0
:103FD000138210821182E357FE4F11821082EE5B32
:103FE000FF4F1082DE01C9011D920197E9F7E256E9
:103FF000FF4F81E08083ED56F24016A615A60FB65E
:10400000F8948091971190919811A0919911B09185
:104010009A110FBE88579C4EAF4FBF4FEB59FD4FC3
:1040200080839183A283B383DF91CF9108950F930F
:104030001F93DF93CF93CDB7DEB72A970FB6F894CF
:10404000DEBF0FBECDBF8091160190911701A091E8
:104050001801B09119018B839C83AD83BE83FE014F
:10406000339624E630E08081F999FECF1FBA32BD45
:1040700021BD80BD0FB6F894FA9AF99A0FBE2F5F52
:104080003F4F2836310511F03196EDCFE3E6F8E0E9
:104090008081F999FECF1FBA32BD21BD80BD0FB618
:1040A000F894FA9AF99A0FBE2F5F3F4F28373105DF
:1040B00011F03196EDCFE3E5F8E08081F999FECF7C
:1040C0001FBA32BD21BD80BD0FB6F894FA9AF99A95
:1040D0000FBE2F5F3F4F2838310511F03196EDCFDD
:1040E000E3E7F8E08081F999FECF1FBA32BD21BD28
:1040F00080BD0FB6F894FA9AF99A0FBE2F5F3F4F22
:104100002839310511F03196EDCFE7E8F8E08081EC
:10411000F999FECF1FBA32BD21BD80BD0FB6F8940C
:10412000FA9AF99A0FBE2F5F3F4F2C39310511F0E3
:104130003196EDCFEBE8F8E08081F999FECF1FBA18
:1041400032BD21BD80BD0FB6F894FA9AF99A0FBE20
:104150002F5F3F4F203A310511F03196EDCFE3E864
:10416000F8E08081F999FECF1FBA32BD21BD80BD34
:104170000FB6F894FA9AF99A0FBE2F5F3F4F243A80
:10418000310511F03196EDCFEBE9F8E08081F99936
:10419000FECF1FBA32BD21BD80BD0FB6F894FA9A8A
:1041A000F99A0FBE2F5F3F4F283A310511F0319633
:1041B000EDCFEFE4F8E08081F999FECF1FBA32BD70
:1041C00021BD80BD0FB6F894FA9AF99A0FBE2F5F01
:1041D0003F4F2C3A310511F03196EDCFEFE8F8E082
:1041E0008081F999FECF1FBA32BD21BD80BD0FB6C7
:1041F000F894FA9AF99A0FBE2F5F3F4F203B310592
:1042000011F03196EDCFE3E9F8E08081F999FECF26
:104210001FBA32BD21BD80BD0FB6F894FA9AF99A43
:104220000FBE2F5F3F4F243B310511F03196EDCF8C
:10423000E7E9F8E08081F999FECF1FBA32BD21BDD0
:1042400080BD0FB6F894FA9AF99A0FBE2F5F3F4FD0
:10425000283B310511F03196EDCFE0E5F6E08081A5
:10426000F999FECF1FBA32BD21BD80BD0FB6F894BB
:10427000FA9AF99A0FBE2F5F3F4F243C310511F097
:104280003196EDCFE6E8F0E18081F999FECF1FBAD3
:1042900032BD21BD80BD0FB6F894FA9AF99A0FBECF
:1042A0002F5F3F4F263C310511F03196EDCFE8E806
:1042B000F0E18081F999FECF1FBA32BD21BD80BDEA
:1042C0000FB6F894FA9AF99A0FBE2F5F3F4F283C29
:1042D000310511F03196EDCFEAE8F0E18081F999EE
:1042E000FECF1FBA32BD21BD80BD0FB6F894FA9A39
:1042F000F99A0FBE2F5F3F4F2A3C310511F03196DE
:10430000EDCFECE8F0E18081F999FECF1FBA32BD24
:1043100021BD80BD0FB6F894FA9AF99A0FBE2F5FAF
:104320003F4F2C3C310511F03196EDCFEEE8F0E136
:104330008081F999FECF1FBA32BD21BD80BD0FB675
:10434000F894FA9AF99A0FBE2F5F3F4F2E3C310531
:1043500011F03196EDCFE0E9F0E18081F999FECFDF
:104360001FBA32BD21BD80BD0FB6F894FA9AF99AF2
:104370000FBE2F5F3F4F203D310511F03196EDCF3D
:10438000EFE5F2E08081F999FECF1FBA32BD21BD81
:1043900080BD0FB6F894FA9AF99A0FBE2F5F3F4F7F
:1043A000243D310511F03196EDCFE3E6F2E0808156
:1043B000F999FECF1FBA32BD21BD80BD0FB6F8946A
:1043C000FA9AF99A0FBE2F5F3F4F283D310511F041
:1043D0003196EDCFE7E6F2E08081F999FECF1FBA82
:1043E00032BD21BD80BD0FB6F894FA9AF99A0FBE7E
:1043F0002F5F3F4F2C3D310511F03196EDCFEDEAA7
:10440000F2E08081F999FECF1FBA32BD21BD80BD97
:104410000FB6F894FA9AF99A0FBE2F5F3F4F203EDD
:10442000310511F03196EDCFE1EBF2E08081F999A1
:10443000FECF1FBA32BD21BD80BD0FB6F894FA9AE7
:10444000F99A0FBE2F5F3F4F243E310511F0319690
:10445000EDCFE5EBF2E08081F999FECF1FBA32BDD6
:1044600021BD80BD0FB6F894FA9AF99A0FBE2F5F5E
:104470003F4F283E310511F03196EDCF80E290E0BC
:104480009A838983FE0131968081F999FECF1FBA04
:1044900032BD21BD80BD0FB6F894FA9AF99A0FBECD
:1044A0002F5F3F4F2A3E310571F7E8E7F6E0808144
:1044B000F999FECF1FBA32BD21BD80BD0FB6F89469
:1044C000FA9AF99A0FBE2F5F3F4F2E3E310511F039
:1044D0003196EDCFE3E5F2E08081F999FECF1FBA86
:1044E00032BD21BD80BD0FB6F894FA9AF99A0FBE7D
:1044F0002F5F3F4F223F310511F03196EDCFECE7B2
:10450000F6E08081F999FECF1FBA32BD21BD80BD92
:104510000FB6F894FA9AF99A0FBE2F5F3F4F263FD5
:10452000310511F03196EDCFE7E5F2E08081F999A0
:10453000FECF1FBA32BD21BD80BD0FB6F894FA9AE6
:10454000F99A0FBE2F5F3F4F2A3F310511F0319688
:10455000EDCFE0E8F6E08081F999FECF1FBA32BDD9
:1045600021BD80BD0FB6F894FA9AF99A0FBE2F5F5D
:104570003F4F2E3F310511F03196EDCFEBE5F2E0E4
:104580008081F999FECF1FBA32BD21BD80BD0FB623
:10459000F894FA9AF99A0FBE81E02130380721F099
:1045A0002F5F3F4F3196ECCF80911A0190911B0104
:1045B000A0911C01B0911D018F839887A987BA87AC
:1045C000FE01379684E690E02081F999FECF1FBA6C
:1045D00092BD81BD20BD0FB6F894FA9AF99A0FBE2C
:1045E0008736910519F001963196EECFE0EEF2E0B4
:1045F00064918F0108C080EA91E10E94DD130F5F92
:104600001F4FF80164916623B1F7E4E5F5E064918A
:104610008F0108C080EA91E10E94DD130F5F1F4FF8
:10462000F80164916623B1F780EA91E16AE00E94A3
:10463000DD132A960FB6F894DEBF0FBECDBFCF9123
:10464000DF911F910F910895EF92FF920F931F93A7
:10465000DF93CF93CDB7DEB7E0970FB6F894DEBF08
:104660000FBECDBFDE011196E4E0F3E080E10190E2
:104670000D928150E1F7DE015196E4EFF2E080E126
:1046800001900D928150E1F7DE019196E4EEF2E0A7
:1046900080E101900D928150E1F789819A81AB818F
:1046A000BC818093630890936408A0936508B093DD
:1046B000660889899A89AB89BC898093530890934D
:1046C0005408A0935508B093560889A19AA1ABA1AC
:1046D000BCA18093730890937408A0937508B0935D
:1046E00076088D819E81AF81B8858093670890930D
:1046F0006808A0936908B0936A088D899E89AF897C
:10470000B88D8093570890935808A0935908B09398
:104710005A088DA19EA1AFA1B8A580937708909368
:104720007808A0937908B0937A0889859A85AB8533
:10473000BC8580936B0890936C08A0936D08B09330
:104740006E08898D9A8DAB8DBC8D80935B0890939C
:104750005C08A0935D08B0935E0889A59AA5ABA5F7
:10476000BCA580937B0890937C08A0937D08B093B0
:104770007E088D859E85AF85B88980936F0890935C
:104780007008A0937108B09372088D8D9E8DAF8DC7
:10479000B8A180935F0890936008A0936108B093DC
:1047A00062088DA59EA5AFA5B8A980937F089093B8
:1047B0008008A0938108B09382080E94C66380E0BD
:1047C00090E8ABE3B5E48093870890938808A093C2
:1047D0008908B0938A0880938B0890938C08A093E3
:1047E0008D08B0938E080F2EF0E0EF2EF0E0FF2E34
:1047F000F0E00F2FF0E01F2FF02DE0928308F092F1
:104800008408009385081093860880E29EE4A0E067
:10481000B0E080934F0890935008A0935108B09354
:104820005208E0929B08F0929C0800939D08109318
:104830009E0880E090E0A0EAB1E480938F08909316
:104840009008A0939108B09392088DEC9CECACEC8E
:10485000BEE38093930890939408A0939508B09337
:10486000960840E050E060EA70E440939708509367
:1048700098086093990870939A08E0925806F0920D
:10488000590600935A0610935B06E0925406F09284
:1048900055060093560610935706E0925006F09284
:1048A0005106009352061093530684EB90E09093C8
:1048B00087108093861086E490E09093891080930F
:1048C00088102FEF30E030938B1020938A1080EF08
:1048D00090E090938D1080938C1084E690E09093FC
:1048E0008F1080938E1030939110209390104093EE
:1048F0005F02509360026093610270936202E092E3
:104900006302F0926402009365021093660280E0F5
:1049100090E0A0E8B0EC8093670290936802A093C7
:104920006902B0936A028AE999E9A1EBB1E4809344
:10493000AD029093AE02A093AF02B093B00261E7D4
:104940007DE38AE89FE30E9486916093B1027093B1
:10495000B2028093B3029093B40260E070E084EE00
:1049600092E40E9492916093B5027093B602809394
:10497000B7029093B8020E94969080E090E0A0E881
:10498000BFE38093B9029093BA02A093BB02B093A5
:10499000BC02E0927806F092790600937A061093B2
:1049A0007B06E0927C06F0927D0600937E061093D3
:1049B0007F06E0928006F0928106009382061093B3
:1049C000830680E090E0ADE4B3E4809353029093DB
:1049D0005402A0935502B0935602809357029093CD
:1049E0005802A0935902B0935A0280E090E0A8E4E4
:1049F000B3E480935B0290935C02A0935D02B0935A
:104A00005E02E0EEF2E064918F0108C080EA91E17D
:104A10000E94DD130F5F1F4FF80164916623B1F709
:104A2000E6EEF2E064918F0108C080EA91E10E9415
:104A3000DD130F5F1F4FF80164916623B1F780EA21
:104A400091E16AE00E94DD13E0960FB6F894DEBFB4
:104A50000FBECDBFCF91DF911F910F91FF90EF90CF
:104A600008950F931F93CF93DF9300EE12E0F801A8
:104A70006491E80107C080EA91E10E94DD1321966C
:104A8000FE0164916623B9F7E4E4F5E06491EF0177
:104A900007C080EA91E10E94DD132196FE01649136
:104AA0006623B9F780EA91E16AE00E94DD13F8011C
:104AB0006491C0EED2E007C080EA91E10E94DD136C
:104AC0002196FE0164916623B9F7409163085091E5
:104AD000640860916508709166088CE395E00E9417
:104AE000F0344091670850916808609169087091AE
:104AF0006A0889E395E00E94F03440916B08509178
:104B00006C0860916D0870916E0886E395E00E94D4
:104B1000F03440916F085091700860917108709165
:104B2000720883E395E00E94F034E091A011F091C7
:104B3000A1110280F381E02D80EA91E16EE171E044
:104B4000099580EA91E16AE00E94DD13F801649121
:104B5000C0EED2E007C080EA91E10E94DD13219609
:104B6000FE0164916623B9F7E9E1F5E06491EF0194
:104B700007C080EA91E10E94DD132196FE01649155
:104B80006623B9F780EA91E16AE00E94DD13F8013B
:104B90006491C0EED2E007C080EA91E10E94DD138B
:104BA0002196FE0164916623B9F740915308509114
:104BB0005408609155087091560880E195E00E9474
:104BC000F0344091570850915808609159087091FD
:104BD0005A088DE095E00E94F03440915B085091B6
:104BE0005C0860915D0870915E088AE095E00E9423
:104BF000F03440915F0850916008609161087091B5
:104C0000620887E095E00E94F034E091A011F091F5
:104C1000A1110280F381E02D80EA91E16EE171E063
:104C2000099580EA91E16AE00E94DD13F801649140
:104C3000C0EED2E007C080EA91E10E94DD13219628
:104C4000FE0164916623B9F7E9EEF4E06491EF01A7
:104C500007C080EA91E10E94DD132196FE01649174
:104C60006623B9F780EA91E16AE00E94DD13F8015A
:104C70006491C0EED2E007C080EA91E10E94DD13AA
:104C80002196FE0164916623B9F740917308509113
:104C90007408609175087091760880EE94E00E9427
:104CA000A934409177085091780860917908709103
:104CB0007A088DED94E00E94A93440917B085091D0
:104CC0007C0860917D0870917E088AED94E00E94D6
:104CD000A93440917F0850918008609181087091BB
:104CE000820887ED94E00E94A934E091A011F09130
:104CF000A1110280F381E02D80EA91E16EE171E083
:104D0000099580EA91E16AE00E94DD13F80164915F
:104D1000C0EED2E007C080EA91E10E94DD13219647
:104D2000FE0164916623B9F7E2EAF4E06491EF01D1
:104D300007C080EA91E10E94DD132196FE01649193
:104D40006623B9F780EA91E16AE00E94DD13F80179
:104D50006491C0EED2E007C080EA91E10E94DD13C9
:104D60002196FE0164916623B9F74091870850911E
:104D700088086091890870918A0889E994E00E9406
:104D8000F03440918B0850918C0860918D0870919F
:104D90008E0886E994E00E94F034E091A011F09131
:104DA000A1110280F381E02D80EA91E16EE171E0D2
:104DB000099580EA91E16AE00E94DD13F8016491AF
:104DC000C0EED2E007C080EA91E10E94DD13219697
:104DD000FE0164916623B9F7E3EEF3E06491EF011D
:104DE00007C080EA91E10E94DD132196FE016491E3
:104DF0006623B9F780EA91E16AE00E94DD13F801C9
:104E00006491C0EED2E007C080EA91E10E94DD1318
:104E10002196FE0164916623B9F740918308509171
:104E2000840860918508709186088AED93E00E945D
:104E3000F03440919B0850919C0860919D087091BE
:104E40009E0887ED93E00E94F03440914F08509106
:104E50005008609151087091520884ED93E00E94CF
:104E6000A93440918F0850919008609191087091F9
:104E7000920881ED93E00E94F034409193085091A4
:104E8000940860919508709196088EEC93E00E94CA
:104E9000F03440919708509198086091990870916A
:104EA0009A088BEC93E00E94F034E091A011F0910D
:104EB000A1110280F381E02D80EA91E16EE171E0C1
:104EC000099580EA91E16AE00E94DD13F80164919E
:104ED000C0EED2E007C080EA91E10E94DD13219686
:104EE000FE0164916623B9F7E9EBF3E06491EF0109
:104EF00007C080EA91E10E94DD132196FE016491D2
:104F00006623B9F780EA91E16AE00E94DD13F801B7
:104F10006491C0EED2E007C080EA91E10E94DD1307
:104F20002196FE0164916623B9F740915006509195
:104F30005106609152067091530680EB93E00E94F7
:104F4000F034409154065091550660915606709188
:104F500057068DEA93E00E94F03440915806509134
:104F6000590660915A0670915B068AEA93E00E94A6
:104F7000F034E091A011F091A1110280F381E02DB5
:104F800080EA91E16EE171E0099580EA91E16AE0E1
:104F90000E94DD13F8016491C0EED2E007C080EA00
:104FA00091E10E94DD132196FE0164916623B9F719
:104FB000ECE9F3E06491EF0107C080EA91E10E941F
:104FC000DD132196FE0164916623B9F780EA91E131
:104FD0006AE00E94DD13F8016491C0EED2E007C0E0
:104FE00080EA91E10E94DD132196FE01649166231F
:104FF000B9F74091AD025091AE026091AF0270914D
:10500000B00282E993E00E94F0346091B1027091A5
:10501000B2028091B3029091B4020E948C91AB01D4
:10502000BC018FE893E00E94F0346091B50270916A
:10503000B6028091B7029091B8020E949891AB019C
:10504000BC018CE893E00E94F034E091A011F09153
:10505000A1110280F381E02D80EA91E16EE171E01F
:10506000099580EA91E16AE00E94DD13F8016491FC
:10507000C0EED2E007C080EA91E10E94DD132196E4
:10508000FE0164916623B9F7E9E7F3E06491EF016B
:1050900007C080EA91E10E94DD132196FE01649130
:1050A0006623B9F780EA91E16AE00E94DD13F80116
:1050B0006491C0EED2E007C080EA91E10E94DD1366
:1050C0002196FE0164916623B9F7409178065091CC
:1050D000790660917A0670917B0680E793E00E94E2
:1050E000F03440917C0650917D0660917E0670916F
:1050F0007F068DE693E00E94F03440918006509147
:10510000810660918206709183068AE693E00E9490
:10511000F034E091A011F091A1110280F381E02D13
:1051200080EA91E16EE171E0099580EA91E16AE03F
:105130000E94DD13F8016491C0EED2E007C080EA5E
:1051400091E10E94DD132196FE0164916623B9F777
:10515000E7E5F3E06491EF0107C080EA91E10E9486
:10516000DD132196FE0164916623B9F780EA91E18F
:105170006AE00E94DD13F8016491C0EED2E007C03E
:1051800080EA91E10E94DD132196FE01649166237D
:10519000B9F74091530250915402609155027091B9
:1051A00056028EE493E00E94F034409157025091F1
:1051B00058026091590270915A028BE493E00E9468
:1051C000F03440915B0250915C0260915D027091FD
:1051D0005E0288E493E00E94F034E091A011F09127
:1051E000A1110280F381E02D80EA91E16EE171E08E
:1051F000099580EA91E16AE00E94DD13F80164916B
:10520000C0EED2E007C080EA91E10E94DD13219652
:10521000FE0164916623B9F7E1E3F3E06491EF01E5
:1052200007C080EA91E10E94DD132196FE0164919E
:105230006623B9F780EA91E16AE00E94DD13F80184
:105240006491C0EED2E007C080EA91E10E94DD13D4
:105250002196FE0164916623B9F740915F02509157
:105260006002609161027091620288E293E00E94A4
:10527000F034409163025091640260916502709134
:10528000660285E293E00E94F034409167025091FB
:1052900068026091690270916A0282E293E00E9462
:1052A000F034E091A011F091A1110280F381E02D82
:1052B00080EA91E16EE171E0099580EA91E16AE0AE
:1052C0000E94DD13DF91CF911F910F9108950F93ED
:1052D0001F93DF93CF93CDB7DEB72A970FB6F8941D
:1052E000DEBF0FBECDBF80911A0190911B01A0912E
:1052F0001C01B0911D018F839887A987BA87FE0191
:10530000339604E610E0F999FECF12BD01BDF89A7C
:1053100080B580830F5F1F4F0836110511F031965D
:10532000F2CFCE010796BE016D5F7F4F43E050E0A4
:105330000E942511009709F017C2E3E6F8E0F999F9
:10534000FECF12BD01BDF89A80B580830F5F1F4F5D
:105350000837110511F03196F2CFE3E5F8E0F9993D
:10536000FECF12BD01BDF89A80B580830F5F1F4F3D
:105370000838110511F03196F2CFE3E7F8E0F9991A
:10538000FECF12BD01BDF89A80B580830F5F1F4F1D
:105390000839110511F03196F2CF0E94C663E7E893
:1053A000F8E0F999FECF12BD01BDF89A80B580836F
:1053B0000F5F1F4F0C39110511F03196F2CFEBE85A
:1053C000F8E0F999FECF12BD01BDF89A80B580834F
:1053D0000F5F1F4F003A110511F03196F2CFE3E84D
:1053E000F8E0F999FECF12BD01BDF89A80B580832F
:1053F0000F5F1F4F043A110511F03196F2CFEBE920
:10540000F8E0F999FECF12BD01BDF89A80B580830E
:105410000F5F1F4F083A110511F03196F2CFEFE4FC
:10542000F8E0F999FECF12BD01BDF89A80B58083EE
:105430000F5F1F4F0C3A110511F03196F2CFEFE8D4
:10544000F8E0F999FECF12BD01BDF89A80B58083CE
:105450000F5F1F4F003B110511F03196F2CFE3E9CA
:10546000F8E0F999FECF12BD01BDF89A80B58083AE
:105470000F5F1F4F043B110511F03196F2CFE7E9A2
:10548000F8E0F999FECF12BD01BDF89A80B580838E
:105490000F5F1F4F083B110511F03196F2CFE0E589
:1054A000F6E0F999FECF12BD01BDF89A80B5808370
:1054B0000F5F1F4F043C110511F03196F2CFE6E863
:1054C000F0E1F999FECF12BD01BDF89A80B5808355
:1054D0000F5F1F4F063C110511F03196F2CFE8E83F
:1054E000F0E1F999FECF12BD01BDF89A80B5808335
:1054F0000F5F1F4F083C110511F03196F2CFEAE81B
:10550000F0E1F999FECF12BD01BDF89A80B5808314
:105510000F5F1F4F0A3C110511F03196F2CFECE8F6
:10552000F0E1F999FECF12BD01BDF89A80B58083F4
:105530000F5F1F4F0C3C110511F03196F2CFEEE8D2
:10554000F0E1F999FECF12BD01BDF89A80B58083D4
:105550000F5F1F4F0E3C110511F03196F2CFE0E9BD
:10556000F0E1F999FECF12BD01BDF89A80B58083B4
:105570000F5F1F4F003D110511F03196F2CFEFE59F
:10558000F2E0F999FECF12BD01BDF89A80B5808393
:105590000F5F1F4F043D110511F03196F2CFE3E686
:1055A000F2E0F999FECF12BD01BDF89A80B5808373
:1055B0000F5F1F4F083D110511F03196F2CFE7E65E
:1055C000F2E0F999FECF12BD01BDF89A80B5808353
:1055D0000F5F1F4F0C3D110511F03196F2CFEDEA30
:1055E000F2E0F999FECF12BD01BDF89A80B5808333
:1055F0000F5F1F4F003E110511F03196F2CFE1EB26
:10560000F2E0F999FECF12BD01BDF89A80B5808312
:105610000F5F1F4F043E110511F03196F2CFE5EBFD
:10562000F2E0F999FECF12BD01BDF89A80B58083F2
:105630000F5F1F4F083E110511F03196F2CFFE01AA
:105640003196F999FECF12BD01BDF89A80B58083DD
:105650000F5F1F4F0A3E110599F7E8E7F6E0F99949
:10566000FECF12BD01BDF89A80B580830F5F1F4F3A
:105670000E3E110511F03196F2CFE3E5F2E0F99913
:10568000FECF12BD01BDF89A80B580830F5F1F4F1A
:10569000023F110511F03196F2CFECE7F6E0F999EF
:1056A000FECF12BD01BDF89A80B580830F5F1F4FFA
:1056B000063F110511F03196F2CFE7E5F2E0F999D6
:1056C000FECF12BD01BDF89A80B580830F5F1F4FDA
:1056D0000A3F110511F03196F2CFE0E8F6E0F999B2
:1056E000FECF12BD01BDF89A80B580830F5F1F4FBA
:1056F0000E3F110511F03196F2CFEBE5F2E0F9998A
:10570000FECF12BD01BDF89A80B5808381E00130E3
:10571000180721F00F5F1F4F3196F1CF0E9496902E
:10572000E0EEF2E064918F0108C080EA91E10E940E
:10573000DD130F5F1F4FF80164916623B1F7E8E0B6
:10574000F3E064918F0108C080EA91E10E94DD13CB
:105750000F5F1F4FF80164916623B1F780EA91E172
:105760006AE00E94DD1302C00E9424237AD92A969F
:105770000FB6F894DEBF0FBECDBFCF91DF911F9162
:105780000F910895CF93DF930FB6F89480919711FE
:1057900090919811A0919911B0919A110FBE809398
:1057A0008D0690938E06A0938F06B0939006E0919D
:1057B000B606F091B706E854F94F8081882399F432
:1057C000E9E1F6E06491EF0107C080EA91E10E940F
:1057D000DD132196FE0164916623B9F780EA91E119
:1057E0006AE00E94DD13DF91CF910895EF92FF925E
:1057F0000F931F93CF93DF93EC01E0905C06F09042
:105800005D0600915E0610915F06688179818A814C
:105810009B81A80197010E949DE1882324F4E882DE
:10582000F9820A831B83E0906006F0906106009184
:105830006206109163066C817D818E819F81A80133
:1058400097010E949DE1882324F4EC82FD820E835F
:105850001F83E0906406F090650600916606109143
:105860006706688579858A859B85A80197010E94CE
:105870009DE1882324F4E886F9860A871B87E09057
:105880004502F0904602009147021091480268815B
:1058900079818A819B81A80197010E94ABE3181648
:1058A00024F4E882F9820A831B83E0904902F09095
:1058B0004A0200914B0210914C026C817D818E81D5
:1058C0009F81A80197010E94ABE3181624F4EC8293
:1058D000FD820E831F83E0904D02F0904E020091F6
:1058E0004F0210915002688579858A859B85A801B1
:1058F00097010E94ABE3181624F4E886F9860A871C
:105900001B87DF91CF911F910F91FF90EF9008952A
:105910008091760608950F931F93CF93DF93813084
:10592000910549F46F5F7F4F09F046C086EC93E024
:105930000E94A01F41C0892B09F03EC06F5F7F4FBE
:10594000D9F584E593E0909379058093780580916B
:105950007D05882321F08AE795E00E94B07AC6E3AE
:10596000D5E004E513E005C06D9784E0C431D807A5
:1059700051F0198308838D818823B1F3CE010296FB
:105980000E94B07AF1CF84E593E0998388838D817A
:10599000882321F0CE0102960E94B07A84E593E03C
:1059A0009093F6038093F5038091FA03882321F006
:1059B00087EF93E00E94B07ADF91CF911F910F9112
:1059C000089580E090E06FEF7FEFA5CF81E090E059
:1059D0006FEF7FEFA0CFCF93DF930E94699180910B
:1059E0007606882309F038C081E08093760680919E
:1059F000850690918606A0918706B09188068093CF
:105A0000890690938A06A0938B06B0938C06EAE6EB
:105A1000F5E06491EF0107C080EA91E10E94DD1397
:105A20002196FE0164916623B9F7EBE7F5E06491F6
:105A3000EF0107C080EA91E10E94DD132196FE018B
:105A400064916623B9F780EA91E16AE00E94DD1370
:105A500081E795E00E94A8C8DF91CF910895CF9388
:105A6000DF93F8940E946991779A10926806769A6B
:105A700010926906479A10926A06439AEAE6F5E0A0
:105A80006491EF0107C080EA91E10E94DD13219645
:105A9000FE0164916623B9F7EAEFF5E06491EF0146
:105AA00007C080EA91E10E94DD132196FE01649116
:105AB0006623B9F780EA91E16AE00E94DD1381EF85
:105AC00095E00E94B7C8FFCFEF92FF920F931F930C
:105AD0000FB6F8948091971190919811A091991117
